{
  "abi": [
    {
      "inputs": [],
      "name": "greet",
      "outputs": [
        {
          "internalType": "string",
          "name": "",
          "type": "string"
        }
      ],
      "stateMutability": "view",
      "type": "function"
    }
  ],
  "bytecode": {
    "object": "0x60c0604052600f60809081526e48656c6c6f20564920454c4954452160881b60a05260009061002e90826100e0565b5034801561003b57600080fd5b5061019f565b634e487b7160e01b600052604160045260246000fd5b600181811c9082168061006b57607f821691505b60208210810361008b57634e487b7160e01b600052602260045260246000fd5b50919050565b601f8211156100db57600081815260208120601f850160051c810160208610156100b85750805b601f850160051c820191505b818110156100d7578281556001016100c4565b5050505b505050565b81516001600160401b038111156100f9576100f9610041565b61010d816101078454610057565b84610091565b602080601f831160018114610142576000841561012a5750858301515b600019600386901b1c1916600185901b1785556100d7565b600085815260208120601f198616915b8281101561017157888601518255948401946001909101908401610152565b508582101561018f5787850151600019600388901b60f8161c191681555b5050505050600190811b01905550565b61019a806101ae6000396000f3fe608060405234801561001057600080fd5b506004361061002b5760003560e01c8063cfae321714610030575b600080fd5b61003861004e565b60405161004591906100dc565b60405180910390f35b6000805461005b9061012a565b80601f01602080910402602001604051908101604052809291908181526020018280546100879061012a565b80156100d45780601f106100a9576101008083540402835291602001916100d4565b820191906000526020600020905b8154815290600101906020018083116100b757829003601f168201915b505050505081565b600060208083528351808285015260005b81811015610109578581018301518582016040015282016100ed565b506000604082860101526040601f19601f8301168501019250505092915050565b600181811c9082168061013e57607f821691505b60208210810361015e57634e487b7160e01b600052602260045260246000fd5b5091905056fea264697066735822122075f19a6f1e0fdc9882b3a07b33a46bc6f7a97559723719be29e84772a3dac27b64736f6c63430008130033",
    "linkReferences": {}
  },
  "methodIdentifiers": {
    "greet()": "cfae3217"
  },
  "id": 17
}